:020000040800F2
:10000000A8080020A1140008B5020008B7020008E3
:10001000BB020008BF020008C30200080000000085
:10002000000000000000000000000000C7020008FF
:10003000C902000800000000CB020008CD02000841
:10004000BB140008BB140008BB140008BB14000854
:10005000BB140008BB140008BB140008BB14000844
:10006000BB140008BB140008BB140008BB14000834
:10007000BB140008BB140008BB140008BB14000824
:10008000BB140008BB140008BB140008BB14000814
:10009000BB140008BB140008BB140008BB14000804
:1000A000BB140008BB140008BB140008BB140008F4
:1000B000BB1400087B0B0008BB140008BB1400082D
:1000C000BB140008BB140008BB140008BB140008D4
:1000D000BB1400083F0D000841130008BB140008C2
:1000E000BB140008BB140008BB140008BB140008B4
:1000F000BB140008BB140008BB140008BB140008A4
:10010000BB140008BB140008BB140008BB14000893
:10011000BB140008BB140008BB140008BB14000883
:10012000BB140008BB140008BB140008BB14000873
:1001300000F002F800F090F80AA090E8000C824469
:100140008344AAF10107DA4501D100F085F8AFF246
:10015000090EBAE80F0013F0010F18BFFB1A43F0A5
:1001600001031847084D0000284D0000103A24BF35
:1001700078C878C1FAD8520724BF30C830C144BF0C
:1001800004680C607047000000230024002500264E
:10019000103A28BF78C1FBD8520728BF30C148BFEA
:1001A0000B6070476E2903F01E81702903F089846B
:1001B000662904F0A185652904F09E85672904F06D
:1001C0009B856129AFF3008003681B0A28BF41F0BB
:1001D0008001692902F0D286642902F0CF86752950
:1001E00002F0CC866F2903F01684782903F0558439
:1001F000E92903F0B183E42903F0AE83F52903F084
:10020000AB83EF2903F01384F82903F054840368C7
:10021000DB0928BF41F08001632903F013857329AE
:1002200003F01885E32903F02385F32903F02885DB
:10023000002070471FB503F071FC0400002000216E
:1002400004F02EFA401C60600020002104F012FA35
:10025000E0601FBD10B510BD03F0B0FD1146FFF703
:10026000E9FF00F008F803F0D7FD03B4FFF7F2FF51
:1002700003BC00F009FD00F09DFC4FF4A06001F00C
:100280002FF94FF4E13000F00EFD4FF4E13000F0B3
:10029000AAFD00F00DF941F61F41632000F040FC7B
:1002A00000F066F94FF4FA6000F0C1FC01E000F0E4
:1002B00036F9FCE7704700BFFEE700BFFEE700BF6E
:1002C000FEE700BFFEE770477047704770470000C9
:1002D0000CB50020019000906C48006840F480301C
:1002E0006A49086000BF6948006800F40030009067
:1002F0000198401C0190009818B90198B0F5A06FC2
:10030000F1D16248006800F4003010B10120009083
:1003100001E0002000900098012843D15C4800686B
:1003200040F010005A4908600846006820F00300B9
:1003300008600846006840F00200086053484068C2
:10034000524948600846406848600846406840F4A2
:10035000806048600846406820F47C104860084689
:10036000406840F4E81048600846006840F080703B
:10037000086000BF4548006800F000700028F9D010
:100380004248406820F00300404948600846406801
:1003900040F00200486000BF3C48406800F00C009C
:1003A0000828F9D10CBD10B5FFF792FF10BD10B5AC
:1003B0003648006840F0010034490860084640684B
:1003C00034490840314948600846006832490840CD
:1003D0002E4908600846006820F48020086008461E
:1003E000406820F4FE0048604FF41F008860FFF76B
:1003F000DAFF4FF000602949086010BD10B50021F8
:1004000000200022214B5B6803F00C0121B104297C
:1004100006D0082928D107E0214B224C236027E091
:100420001F4B204C236023E0184B5B6803F47010D3
:10043000164B5B6803F48032022303EB904022B931
:10044000194B4343174C23600DE0104B5B6803F4DA
:10045000003323B1144B4343124C236003E0104B91
:100460004343104C236003E00D4B0E4C236000BF50
:1004700000BF064B5B68C3F303130C4CE15C094BF4
:100480001B68CB40074C236010BD000000100240E9
:10049000002002400000FFF8FFFFF6FE08ED00E03C
:1004A00000127A000000002000093D000400002036
:1004B00008B50121182001F09DFB4FF40050ADF864
:1004C000000010208DF8030003208DF8020069461B
:1004D000154801F0D3F84FF40051134801F07BF9AF
:1004E0004FF40070ADF800006946104801F0C6F8FE
:1004F0004FF400710D4801F06EF908BD0C4800681A
:10050000642190FBF1F201FB120038B90948006840
:1005100008B9012000E0002006490860704700206B
:10052000054908607047000000100140000C0140C0
:1005300018000020B4012242A481214208B5012103
:10054000102001F057FB0320ADF800008DF80200E9
:1005500010208DF803006946FA4801F08FF8022157
:10056000F84801F038F90121F64801F034F908BDE6
:1005700010B5FFF7E3FF4FF40070F349088010BD9A
:10058000014601EBC1024FF0E0235A6101221A61DA
:1005900000229A6100BF4FF0E022106900F00102D2
:1005A0001AB100F48032002AF5D000224FF0E02387
:1005B0001A619A61704708B50120ADF80000032068
:1005C0008DF8020010208DF803006946DD4801F027
:1005D00055F808BD10B5FFF7EEFF0221D94801F02C
:1005E000FCF80121D74801F0F8F80221D54801F0C4
:1005F000F2F80220FFF7C4FF0121D24801F0EBF826
:100600000220FFF7BDFF10BD08B50120ADF80000C6
:1006100048208DF803006946CA4801F02FF808BD4C
:1006200010B50024FFF7F0FF0121C64801F0D3F810
:100630000220FFF7A5FF0221C24801F0CCF80220FA
:10064000FFF79EFF05E0601CC4B20A2C01DD01200B
:1006500010BD0121BB4801F0A4F80028F3D102210C
:10066000B84801F0BAF80020F2E770B5044600255A
:10067000FFF7A1FF0221B34801F0AFF800BF1EE071
:1006800004F08000002804DD0121AE4801F0A3F849
:1006900003E00121AB4801F0A0F86006040E02213E
:1006A000A84801F098F80220FFF76AFF0221A54848
:1006B00001F093F80220FFF763FF681CC5B2082D14
:1006C000DEDB70BD10B5FFF776FF01219D4801F01C
:1006D00082F802219B4801F07EF80220FFF750FFCC
:1006E0000121984801F079F80220FFF749FF022123
:1006F000944801F072F810BD70B506460D461446D8
:10070000FFF7E0FF3046FFF7B0FFFFF789FF08B1C2
:10071000012070BD2846FFF7A8FFFFF781FF08B151
:100720000120F6E72012FFF7A0FFFFF779FF08B1DD
:100730000120EEE7E0B2FFF798FFFFF771FF08B185
:100740000120E6E7FFF746FF0020E2E770B5054627
:1007500083247D480088044344F4004435B1012DCE
:1007600007D0022D08D0032D0CD108E044F48044BA
:1007700008E044F4A04405E044F4C04402E044F43A
:10078000E04400BF00BF224601219020FFF7B4FFE4
:1007900008B1012070BD0020FCE770B505460C468D
:1007A000FFF790FF2846FFF760FFFFF739FF08B11A
:1007B000012070BD2046FFF758FFFFF731FF08B159
:1007C0000120F6E7FFF706FF0020F2E75E49088008
:1007D00070475D480088704710B50221594800F005
:1007E000FCFFFFF7E8FE0121564800F0F6FF02206B
:1007F000FFF7C6FE0221534800F0EDFF0220FFF78D
:10080000BFFE02214F4800F0E8FF10BD10B50221E5
:100810004C4800F0E2FFFFF7CEFE0121494800F00E
:10082000DAFF0220FFF7ACFE0221464800F0D3FFBA
:100830000220FFF7A5FE0221424800F0CEFF10BDC6
:1008400070B5054600260024FFF7DEFE00BF18E065
:1008500002213C4800F0C1FF0220FFF791FE022177
:10086000384800F0B8FF6006040E0121354800F05A
:1008700098FF08B1601CC4B20120FFF781FE701C14
:10088000C6B2082EE4DB15B9FFF7C0FF01E0FFF7A1
:10089000A3FF204670BD70B500240025FFF712FFAE
:1008A0009120FFF7E2FEFFF7BBFE08B1012070BD0B
:1008B0000120FFF7C5FF04460120FFF7C1FF0546F1
:1008C000FFF788FE45EA0420F1E710B500219020EB
:1008D000FFF763FF10B11DA002F01CFBFFF7DBFF69
:1008E00010BD2DE9F05F83465846FFF72FFF18B182
:1008F00059461DA002F00EFBFFF7E7FF0FFA80FA42
:1009000047F6FF70824501D1012000E00020BAF5D2
:10091000004F01D1012100E00021084320B14FF038
:10092000000A1AA002F0F6FA07480088B0F5C06F76
:100930006AD032DC80B3B0F5007F45D0B0F5806F6F
:1009400041D151E00010014014000020696E69742B
:1009500020506F696E7452656769737465722065A3
:1009600072726F720D0A0000696E697420636861AB
:100970006E6E656C20256420636F6E6669677265B4
:1009800067206572726F720D0A0000006F766572E3
:10099000205047410D0A000006E0B0F5006F43D03B
:1009A000B0F5206F60D14FE0504604F019F8804652
:1009B00000224B4B04F02CF806460022494B03F072
:1009C000B7FE04460D464FE0504604F009F8804655
:1009D0000022454B04F01CF806460022414B03F070
:1009E000A7FE04460D463FE0504603F0F9FF0646D9
:1009F00000223E4B04F00CF880460022394B03F0F5
:100A000097FE04460D462FE0504603F0E9FF0646E8
:100A10000022374B03F0FCFF80460022314B03F0ED
:100A200087FE04460D461FE0504603F0D9FF0646F8
:100A30000022304B03F0ECFF80460022294B03F0EC
:100A400077FE04460D460FE0504603F0C9FF064608
:100A50000022294B03F0DCFF80460022214B03F0EB
:100A600067FE04460D4600BF00BF20462946BDE88C
:100A7000F09F2DE9F04104464FF47A7000F0D7F86A
:100A80002046FFF72EFF064603F020FE05462846C7
:100A900004F0BCF8064632460B46214617A002F089
:100AA00039FABDE8F081014642F228324A434FF05C
:100AB000E0235A6101221A6100229A6100BF4FF0BF
:100AC000E022106900F001021AB100F48032002A1D
:100AD000F5D000224FF0E0231A619A6170470000C0
:100AE0000070674080842E4100405F4000404F40CE
:100AF00000403F4000402F4000401F406164733180
:100B00003131352067657420766F6C202020636852
:100B1000616E65656C202564203D2025660D0A0008
:100B20007FB505460C460121022001F070F8ADF8B2
:100B30000850ADF804400020ADF80A00ADF80600FA
:100B400001A91A4801F092FB01221146174801F051
:100B500004FF1D208DF8000000208DF80100032007
:100B60008DF8020001208DF80300684600F0BDFCFE
:100B700001210E4801F0D6FE7FBD10B501210B48C2
:100B800002F099F988B10121084802F0A5F9084856
:100B90000068401C06490860084600686FF0004184
:100BA000884202D100200249086010BD00040040C4
:100BB0001800002010B56FF0040000F0E0FC2E4893
:100BC00000682E49B0FBF1F02D4908700846007806
:100BD00000EB4001C1EBC0104FF6FF7101EAC0000D
:100BE0002849088010BD0146254A12784A434FF033
:100BF000E0235A6100229A611A46126942F001020A
:100C00001A6100BF4FF0E022106900F001021AB132
:100C100000F48032002AF5D04FF0E022126922F071
:100C200001024FF0E0231A6100229A6170470146E9
:100C3000144A12884A434FF0E0235A6100229A6115
:100C40001A46126942F001021A6100BF4FF0E02219
:100C5000106900F001021AB100F48032002AF5D0C8
:100C60004FF0E022126922F001024FF0E0231A61F6
:100C700000229A61704700000000002000127A00F4
:100C80001C0000201E000020014600BF704700BF6E
:100C9000494A128802F04002002AF9D0C2B2464BFB
:100CA0001B1D1A80704710B586B00446012144F21E
:100CB000040000F09FFF4FF40070ADF81400032013
:100CC0008DF8160018208DF8170005A93B4800F094
:100CD000D5FC4FF48060ADF8140004208DF81700A7
:100CE00005A9364800F0CAFC25208DF80000032035
:100CF0008DF801008DF8020001208DF80300684690
:100D000000F0F3FB01940020ADF80800ADF80A00F4
:100D1000ADF80C00ADF810000C20ADF80E0001A9E4
:100D2000254801F00EF8012240F22551224801F039
:100D3000A0F80121204801F090F806B010BD10B5D0
:100D400040F225511C4801F079F910B31A4801F01E
:100D5000F5F8C4B21A48008800F40040C8B9184831
:100D6000008800F4804060B10A2C03D000201449B0
:100D7000088020E01248008840F4004010490880B4
:100D800019E00D2C06D10E48008840F480400C4933
:100D9000088010E00A480088C0F30D0009490C548F
:100DA00007480088401C0649088008460088C72874
:100DB00001DD0020088010BD00380140000801401E
:100DC0002400002068000020014600BF704700BFDB
:100DD000FE4A128802F04002002AF9D0C2B2FB4B50
:100DE0001B1D1A80704710B586B0044601210420EF
:100DF00000F000FF0121480400F009FF0420ADF8D5
:100E0000140003208DF8160018208DF8170005A98E
:100E1000EF4800F033FC0820ADF8140004208DF8F2
:100E2000170005A9EA4800F029FC0121480400F058
:100E300008FF00214FF4003000F003FF0194002070
:100E4000ADF80800ADF80A00ADF80C00ADF81000E0
:100E50000C20ADF80E0001A9DC4800F072FF26203E
:100E60008DF8000003208DF801008DF802000120AC
:100E70008DF80300684600F038FB012240F225514E
:100E8000D24800F0F6FF0121D04800F0E6FF06B09E
:100E900010BD30B50246535C303B4FF47A74634367
:100EA0004C1C145D303C04EBC40505EB041403EB4F
:100EB00084048B1CD35C303B03EB830304EB4304BF
:100EC000CB1CD35C303BE01830BD0FB410B59AB0EA
:100ED00000241DA80090642101A8009B1C9A01F029
:100EE000FFFF0DE000BFB948008800F04000002877
:100EF000F9D001A8015DB54801F01CF8601C84B26E
:100F0000642C03DA01A8005D0028EBD100200090DA
:100F10001AB010BC5DF814FB70B504460D22AD4844
:100F20000168204602F02AF9B0B9607B30386421AC
:100F30004843A17B303901EB810100EB4101E07BAB
:100F400030380D18A44845600020A3490870294690
:100F5000A2A0FFF7BAFF02E0A4A0FFF7B6FF11229C
:100F6000A7480168204602F009F980B9A07C303812
:100F7000617C303901EB810100EB410596494D72EE
:100F80000020087229469FA0FFF79FFF02E0A2A061
:100F9000FFF79BFF0E22A6480168204602F0EEF8FC
:100FA000002827D10522A3A104F10E0002F0E6F8E3
:100FB00038B9A2A0FFF789FF00208749C87288725C
:100FC0001BE00422A2A104F10E0002F0D7F840B900
:100FD000A1A0FFF77AFF01207F49C8720020887224
:100FE0000BE0A2A0FFF771FFFFF799FA02207A4900
:100FF000887202E0A2A0FFF768FF1022A6480168ED
:10100000204602F0BBF880B9607C3038217C303952
:1010100001EB810100EB41056F494D73002008731E
:1010200029469EA0FFF751FF02E0A1A0FFF74DFF68
:101030000A22A5480168204602F0A0F800287DD1C8
:101040006548407A11287DD2DFE800F07C726B643D
:101050005D564F48413A332C251E17100900862152
:101060002046FFF716FF9949C86300BF7E2120463E
:10107000FFF70FFF9549886300BF76212046FFF7F1
:1010800008FF9249486300BF6E212046FFF701FF29
:101090008E49086300BF66212046FFF7FAFE8B49A0
:1010A000C86200BF5E212046FFF7F3FE87498862D1
:1010B00000BF56212046FFF7ECFE8449486200BF7E
:1010C0004E212046FFF7E5FE8049086200BF462119
:1010D0002046FFF7DEFE7D49C86100BF3E21204665
:1010E000FFF7D7FE7949886100BF36212046FFF718
:1010F000D0FE7649486100BF2E212046FFF7C9FE89
:101100007249086100BF26212046FFF7C2FE6F49E1
:10111000C86000BF1E212046FFF7BBFE6B498860F8
:1011200000BF16212046FFF7B4FE6849486000BFA3
:101130000E212046FFF7ADFE644901E004E001E026
:10114000086000BF00BF00BF70BD70B504460D222F
:101150005F480168204602F011F848B902201E4994
:1011600008705B4801685BA0FFF7AFFEFFF7D7F997
:101170000D225A480168204602F000F848B90220C2
:10118000154908725548016852A0FFF79EFEFFF707
:10119000C6F90E2252480168204601F0EFFF48B917
:1011A00002200D4988724E4801684AA0FFF78DFE63
:1011B000FFF7B5F910224B480168204601F0DEFF29
:1011C00010B9022004498FE09FE000000044004075
:1011D000000801402C000020700100205365745F5E
:1011E000467265713D25640D0A000000636D702034
:1011F0006661696C205365745F467265710D0A0003
:10120000300000205365745F4D6F746F5F4E756DD5
:101210003D25640D0A000000636D70206661696CF5
:10122000205365745F4D6F746F5F4E756D0D0A00CE
:1012300034000020737461727400000044657465AA
:1012400063745F456E3D73746172740D0A00000033
:1012500073746F70000000004465746563745F45CB
:101260006E3D73746F700D0A000000004465746574
:1012700063745F456E206E6F6E650D0A000000009E
:10128000636D70206661696C204465746563745F8A
:10129000456E0D0A000000003800002044657465AA
:1012A00063745F4D6F746F3D25640D0A000000008C
:1012B000636D70206661696C204465746563745F5A
:1012C0004D6F746F0D0A00002800002030010020CF
:1012D0003C00002025730D0A0000000040000020A3
:1012E00044000020480000200873607C3038217CD6
:1012F000303901EB810100EB41052A46484801687D
:1013000048A0FFF7E2FDFFF70AF970BD10B5B2B0D3
:101310004648007800F03F0422464549684601F0FF
:101320009FFFC821424801F074FF6846FFF70DFF98
:101330006846FFF7F1FD00203C49088032B010BD3F
:1013400010B540F225513B4800F078FE20B33948F3
:1013500000F0F4FDC4B23548008800F40040D8B96C
:101360003248008800F4804070B10A2C03D000207D
:101370002E49088022E02D48008840F400402B4987
:101380000880FFF7C3FF19E00D2C06D1274800881D
:1013900040F480402549088010E024480088C0F3CC
:1013A0000D0023490C5421480088401C1F49088027
:1013B00008460088C72801DD0020088010BD10B550
:1013C000044621461CA0FFF780FD01201F4908703C
:1013D00010BD10B5044621461DA0FFF776FD012083
:1013E0001A49087210BD10B5044634B91DA0FFF7A4
:1013F0006CFD01201549887207E0012C05D11EA063
:10140000FFF763FD01201149887210BD10B5044635
:1014100021461EA0FFF759FD01200C49087310BD9D
:101420004800002025732532640D0A00500000207A
:1014300080010020004400407365745F667265712E
:101440003D253364487A0D0A000000007001002039
:101450007365745F6D6F746F5F6E756D3D2532647B
:101460000D0A00006465746563745F656E3D737496
:101470006172740D0A0000006465746563745F65D1
:101480006E3D73746F700D0A000000006465746532
:1014900063745F6D6F746F3D2532640D0A00000048
:1014A0000948804709480047FEE7FEE7FEE7FEE7F8
:1014B000FEE7FEE7FEE7FEE7FEE7FEE70448054934
:1014C000054A064B70470000AF03000831010008D1
:1014D000A8020020A8080020A8040020A8040020DA
:1014E00031490143314A1160704770B50021002332
:1014F0000F22C47804B32D4C246804F4E064C4F5CE
:10150000E064210AC1F10403CA40447804FA03F1FB
:101510008478144021430901254C0678A1550478AC
:1015200004F01F050124AC4005786D11AD0005F1F4
:10153000E025C5F8004109E0047804F01F05012406
:10154000AC401C4D0678761145F8264070BD1A4A0D
:101550000A400243154B1B1F1A60704739B1134AEA
:10156000121D12680243114B1B1D1A6006E00F4A40
:10157000121D126882430D4B1B1D1A607047042810
:1015800008D14FF0E021096941F004014FF0E02259
:10159000116107E04FF0E021096921F004014FF0EB
:1015A000E0221161704700000000FA050CED00E038
:1015B00000E400E080E100E080FFFF1F10B504467A
:1015C000CC48844208D10121042000F02DFB0021E9
:1015D000042000F029FB46E0C748844208D10121DD
:1015E000082000F021FB0021082000F01DFB3AE05C
:1015F000C248844208D10121102000F015FB0021CF
:10160000102000F011FB2EE0BD48844208D10121DA
:10161000202000F009FB0021202000F005FB22E043
:10162000B848844208D10121402000F0FDFA002191
:10163000402000F0F9FA16E0B348844208D10121B5
:10164000802000F0F1FA0021802000F0EDFA0AE09D
:10165000AE48844207D10121801500F0E5FA00214F
:10166000A01500F0E1FA10BD10B50121084600F008
:10167000DBFA0021012000F0D7FA10BD2DE9F0417E
:10168000024600250026002000230024002791F8B0
:1016900003C00CF00F0591F803C00CF0100CBCF166
:1016A000000F03D091F802C04CEA050591F800C084
:1016B000BCF1000F31D0146800202BE04FF0010C7A
:1016C0000CFA00F3B1F800C00CEA03069E4220D1E8
:1016D00083004FF00F0C0CFA03F7BC4305FA03FC30
:1016E0004CEA040491F803C0BCF1280F06D14FF076
:1016F000010C0CFA00FCC2F814C00AE091F803C017
:10170000BCF1480F05D14FF0010C0CFA00FCC2F8F7
:1017100010C0401C0828D1D31460B1F800C0BCF13F
:10172000FF0F34DD546800202EE000F1080C4FF06C
:10173000010808FA0CF3B1F800C00CEA03069E4257
:1017400021D183004FF00F0C0CFA03F7BC4305FACC
:1017500003FC4CEA040491F803C0BCF1280F05D146
:1017600000F1080C08FA0CF8C2F8148091F803C0D4
:10177000BCF1480F07D100F1080C4FF0010808FA3E
:101780000CF8C2F81080401C0828CED35460BDE885
:10179000F0814FF6FF710180022181700421C17038
:1017A00070470246002093680B400BB1012000E017
:1017B000002070470146886880B2704702460020CA
:1017C000D3680B400BB1012000E0002070470146B8
:1017D000C86880B2704701617047416170470AB1C3
:1017E000016100E041617047C16070474FF4803291
:1017F0000A4382618161826182698269704702461F
:101800000020434B18684FF68073184040EA0210DE
:1018100008433F4B186070473E49C8617047F0B5B8
:101820000A46002300240021002500F00046B6F1FE
:10183000004F02D1364EF16901E0354E7168C0F3B8
:10184000034583B200F44016B6F5401F08D121F0DD
:1018500070612F4E766826F070662D4F7E6012E024
:1018600000F48016B6F5801F06D1032606FA05F4AB
:10187000A14341F0706106E0460D360103FA06F619
:10188000B14341F0706122B1460D360103FA06F60C
:10189000314300F00046B6F1004F02D11C4EF16119
:1018A00001E01B4E7160F0BD30B500228B071C0FAC
:1018B0000F2303FA04F2164B08338C1053F824302C
:1018C0009343134C08348D1044F8253023468C1074
:1018D00053F824308C07240F00FA04F423430C4CF3
:1018E00008348D1044F8253030BD0A49DC310860D9
:1018F0007047000000080140000C0140001001404A
:101900000014014000180140001C0140002001406B
:101910000000014000002042DF48006840F0010064
:10192000DD49086008464068DC490840DA494860FB
:1019300008460068DA490840D74908600846006848
:1019400020F4802008600846406820F4FE004860CB
:101950004FF41F0088607047CF49096821F4803137
:10196000CD4A11601146096821F480211160B0F55B
:10197000803F03D0B0F5802F0ED106E0C64909683C
:1019800041F48031C44A116007E0C349096841F459
:10199000A021C14A116000E000BF00BF704710B530
:1019A00001460022002300204A11012A02D1BA4C2C
:1019B000236806E0022A02D1B74C236A01E0B64C44
:1019C000636A01F01F02012494401C400CB1012005
:1019D00000E0002010BD38B5002000900024002554
:1019E00000BF3120FFF7DBFF05460098401C009048
:1019F0000098B0F5A06F01D0002DF2D03120FFF794
:101A0000CEFF08B1012400E00024204638BD014685
:101A10000020A14A106820F0F80040EAC1001060E0
:101A20007047A04908607047024600209A4B5868EA
:101A300020F47C1042EA01031843974B586070472A
:101A400098490866704701460020934A506820F084
:101A500003000843506070478F48406800F00C0056
:101A60007047014600208C4A506820F0F00008437F
:101A70005060704701460020874A506820F4E060BB
:101A800008435060704701460020834A506820F4A4
:101A9000605040EAC1005060704729B17E4A527AD6
:101AA00002437D4B5A7204E07B4A527A82437A4B5E
:101AB0005A7270477B49D831086070470146002050
:101AC000754A506820F44040084350607047002138
:101AD000714A20321170704A82F82010012802D019
:101AE00004280AD104E001216B4A2032117005E07C
:101AF0000521694A2032117000E000BF00BF704725
:101B00006949086070476449096A0143624A116281
:101B10007047654944390860704730B5002100229C
:101B2000002400235C4D6D6805F00C0121B10429EF
:101B300005D0082923D105E05C4D056022E05B4D0E
:101B400005601FE0544D6D6805F47012524D6D68CC
:101B500005F48034022505EB92421CB9544D5543DF
:101B600005600BE04C4D6D6805F400351DB1504D1E
:101B70005543056002E04D4D5543056002E04B4D75
:101B8000056000BF00BF444D6D6805F0F001090914
:101B9000484D6B5C0568DD4045603F4D6D6805F460
:101BA000E061090A434D6B5C4568DD4085603A4D54
:101BB0006D6805F46051C90A3E4D6B5C4568DD40B7
:101BC000C560354D6D6805F44041890B3A4D6B5C3D
:101BD000C568B5FBF3F5056130BD29B12E4A5269E0
:101BE00002432D4B5A6104E02B4A526982432A4B2F
:101BF0005A61704729B1284A92690243264B9A617B
:101C000004E0254A92698243234B9A61704729B1C7
:101C1000214AD2690243204BDA6104E01E4AD269AC
:101C200082431D4BDA61704729B11B4AD2680243D7
:101C3000194BDA6004E0184AD2688243164BDA6026
:101C4000704729B1144A12690243134B1A6104E028
:101C5000114A12698243104B1A6170471249403988
:101C6000086070470F49C86470470B49C8717047D6
:101C70000948406A40F08070074948627047014651
:101C80000020054A92680A400AB1012000E00020C5
:101C90007047014988727047001002400000FFF849
:101CA000FFFFF6FE000042428004424200127A002A
:101CB00000093D00520000206200002010B50446DB
:101CC000FB48844209D101218803FFF7ADFF0021C1
:101CD0004FF48040FFF7A8FF32E0F648844209D174
:101CE00001214804FFF7ADFF00214FF40030FFF75A
:101CF000A8FF25E0F048844209D101218804FFF7BC
:101D0000A0FF00214FF48020FFF79BFF18E0EB4875
:101D1000844209D10121C804FFF793FF00214FF449
:101D20000020FFF78EFF0BE0E548844208D1012137
:101D30000805FFF786FF00214FF48010FFF781FFB1
:101D400010BD2DE9F04786B005460E460024A24698
:101D500000BFA1460027B08900B100BF2F462C8AE2
:101D60004CF6FF700440F08804432C82AC894EF698
:101D7000F3100440B0883189084371890843044353
:101D8000AC81AC8A4FF6FF400440B0890443AC827A
:101D900001A8FFF7C2FEC648874202D1DDF810A0B5
:101DA00001E0DDF80CA0A88900F4004040B10AEB86
:101DB000CA0000EB0A1031684900B0FBF1F807E0F7
:101DC0000AEBCA0000EB0A1031688900B0FBF1F899
:101DD0006420B8FBF0F004012009642101FB1089A4
:101DE000A88900F4004040B1322000EBC900B0FBEC
:101DF000F1F000F00700044308E0322000EB091086
:101E00006421B0FBF1F000F00F0004432C8106B018
:101E1000BDE8F0874FF41651016000218180C18038
:101E200001810C21418100218181704710B502465A
:101E30000020108A4FF2FF0318400B884C88234380
:101E40008C882343CC8823431843108210BD002183
:101E5000018041808180C180704721B1828942F434
:101E60000052828104E082894DF6FF731A4082811C
:101E70007047F0B50346002400260025002040F6F8
:101E80006A17B94200D100BF1846C1F3421401F0ED
:101E90001F06012707FA06F5012C01D10C3004E0DA
:101EA000022C01D1103000E014301AB107682F4322
:101EB000076002E00768AF430760F0BD1AB1838A8C
:101EC0000B43838202E0838A8B4383827047028ABA
:101ED0004FF6F0731A400282028A0A430282704768
:101EE00082894FF2FF731A40828182890A4382817C
:101EF000704721B1828942F00202828104E0828926
:101F00004FF6FD731A4082817047028A4FF6DF73E5
:101F10001A400282028A0A430282704721B1028A71
:101F200042F48042028204E0028A4BF6FF731A40B8
:101F300002827047C1F30802828070470146888898
:101F4000C0F308007047818941F001018181704729
:101F5000028BD2B20283028B42EA012202837047D3
:101F6000028B02F47F420283028B0A430283704792
:101F700021B1828A42F02002828204E0828A4FF6F6
:101F8000DF731A408282704721B1828A42F01002C8
:101F9000828204E0828A4FF6EF731A408282704791
:101FA00021B1828A42F00802828204E0828A4FF6DE
:101FB000F7731A408282704721B1828942F400424D
:101FC000828103E08289C2F30E028281704721B1CF
:101FD000828A42F40062828204E0828A4FF2FF73B6
:101FE0001A4082827047828A4FF6FB731A408282BF
:101FF000828A0A438282704721B1828A42F00202B9
:10200000828204E0828A4FF6FD731A408282704712
:1020100002460020B1F5007F00D100BF13880B40BD
:102020000BB1012000E00020704701F40072B2F50E
:10203000007F00D100BFCA430280704770B50246DE
:10204000002400230025002040F66A16B14200D18A
:1020500000BFC1F3421501F01F03012606FA03F386
:10206000012D02D19689334006E0022D02D1168A55
:10207000334001E0968A33400C12012606FA04F43C
:102080001688344013B10CB1012000E0002070BD6F
:1020900010B50022002340F66A14A14200D100BF0F
:1020A0000A1201249440A3B2DC43048010BD000056
:1020B000003801400044004000480040004C00400F
:1020C0000050004010B50446FE48844208D101216A
:1020D000C014FFF7A9FD0021E014FFF7A5FDC4E03F
:1020E000B4F1804F08D101210846FFF7AAFD002175
:1020F0000120FFF7A6FDB8E0F348844208D1012192
:102100000220FFF79EFD00210220FFF79AFDACE0C0
:10211000EE48844208D101210420FFF792FD0021FE
:102120000420FFF78EFDA0E0E948844208D1012198
:102130000820FFF786FD00210820FFF782FD94E0CC
:10214000E448844208D101211020FFF77AFD0021E4
:102150001020FFF776FD88E0DF48844208D1012196
:102160002020FFF76EFD00212020FFF76AFD7CE0B4
:10217000DA48844208D101214014FFF755FD0021BF
:102180006014FFF751FD70E0D548844209D1012168
:10219000C804FFF749FD00214FF40020FFF744FD7C
:1021A00063E0D048844209D101210805FFF73CFDD6
:1021B00000214FF48010FFF737FD56E0CA488442F3
:1021C00009D101214805FFF72FFD00214FF4001030
:1021D000FFF72AFD49E0C548844208D1012140208B
:1021E000FFF72FFD00214020FFF72BFD3DE0C04809
:1021F000844208D101218020FFF723FD00218020A7
:10220000FFF71FFD31E0BB48844208D10121801552
:10221000FFF717FD0021A015FFF713FD25E0B648D5
:10222000844209D101210804FFF7FEFC00214FF48C
:102230008030FFF7F9FC18E0B048844209D1012151
:102240004804FFF7F1FC00214FF40030FFF7ECFCED
:102250000BE0AB48844208D101218804FFF7E4FC7D
:1022600000214FF48020FFF7DFFC10BD0022028820
:10227000944B98420ED0994B98420BD0B0F1804FBE
:1022800008D0914B984205D0904B984202D0904B89
:10229000984204D14FF68F731A404B881A438D4BE6
:1022A000984207D08C4B984204D04FF6FF431A4017
:1022B000CB881A4302808B8883850B880385814BEA
:1022C00098420BD0854B984208D08B4B984205D052
:1022D0008A4B984202D08A4B984201D10B7A0386EE
:1022E00001238382704770B5002400220023058CEF
:1022F0004FF6FE7635400584028C8388048B4FF6BA
:102300008F752C40B51E2C400D882C43751E2A401D
:102310000D892A434D882A436A4DA8420BD06F4D40
:10232000A84208D0744DA84205D0744DA84202D0EE
:10233000734DA84213D14FF6F7752A404D892A43B1
:102340004FF6FB752A408D882A434FF6FF652B40D8
:102350004FF6FF552B408D892B43CD892B4383802E
:102360000483CD888586028470BD70B50024002268
:102370000023058C4FF6EF7635400584028C838868
:10238000048B48F6FF752C404FF6FF452C400D8816
:102390004FF6FF7606EA05252C434FF6DF752A40F7
:1023A0000D8906EA05152A434D8806EA05152A43D4
:1023B000444DA84202D0494DA8421DD14FF67F7529
:1023C0002A404D894FF6FF7606EA05152A434FF657
:1023D000BF752A408D8806EA05152A434FF6FF355A
:1023E0002B404FF2FF752B408D8906EA85052B4364
:1023F000CD8906EA85052B4383800483CD88058734
:10240000028470BD70B5002400220023058C4FF6B5
:10241000FF6635400584028C8388848B4FF68F7568
:102420002C404FF6FC752C400D882C434FF6FF5581
:102430002A400D894FF6FF7606EA05252A434D8886
:1024400006EA05252A431F4DA84202D0234DA84283
:102450001DD14FF2FF752A404D894FF6FF7606EAEF
:1024600005252A434FF6FF352A408D8806EA0525C3
:102470002A434EF6FF752B404DF6FF752B408D8994
:1024800006EA05152B43CD8906EA05152B43838003
:102490008483CD888587028470BD70B500220023B7
:1024A0000024058C4EF6FF7635400584038C848825
:1024B000828B48F6FF752A404FF6FF452A400D886B
:1024C00020E00000002C0140000400400008004013
:1024D000000C004000100040001400400034014097
:1024E000004C0140005001400054014000180040E1
:1024F000001C00400020004000400140004401401A
:10250000004801404FF6FF7606EA05252A434DF6BE
:10251000FF752B400D8906EA05352B434D8806EAE9
:1025200005352B43FA4DA84202D0FA4DA84208D1F6
:102530004BF6FF752C408D894FF6FF7606EA851520
:102540002C4384808283CD88A0F84050038470BDE2
:10255000828B4FF2FF331A408283828B4FF6FF73D8
:1025600003EA01231A4382837047F0B50C461546EF
:10257000002200210026078C4EF6FF7C07EA0C079C
:102580000784828B018C4FF6FF7707EA043640F60A
:10259000FF473A404FF6FF7707EA05273A434FF6E1
:1025A000FF7707EA03373A43D94FB8420ED0D94FE5
:1025B000B8420BD0B0F1804F08D0D74FB84205D009
:1025C000D64FB84202D0D64FB84206D14DF6FF776B
:1025D000394046F48057394305E047F6FF57394004
:1025E00044F48057394382830184F0BD828B4FF6D7
:1025F000F3731A408283828B0A4382837047F0B55B
:102600000C461546002200210026078C4FF6FF6C71
:1026100007EA0C070784828B018C4FF6FF7707EAE5
:1026200004264FF60C773A404FF6FF7707EA031778
:102630002F433A43B64FB8420ED0B64FB8420BD0F4
:10264000B0F1804F08D0B44FB84205D0B34FB84274
:1026500002D0B34FB84206D14FF6FF57394046F487
:102660008077394305E04FF2FF57394044F48077D3
:10267000394382830184F0BD028B4FF2FF331A404D
:102680000283028B4FF6FF7303EA01231A4302838E
:102690007047F0B50C461546002200210026078C35
:1026A0004FF6EF7C07EA0C070784028B018C4FF68C
:1026B000FF7707EA041640F6FF473A404FF6FF77E8
:1026C00007EA03373A434FF6FF7707EA05273A430D
:1026D0008F4FB8420ED08F4FB8420BD0B0F1804F21
:1026E00008D08D4FB84205D08C4FB84202D08C4FE5
:1026F000B84206D14FF6DF77394046F0100739432C
:1027000005E04FF65F77394044F010073943028304
:102710000184F0BD028B4FF6F3731A400283028BE3
:102720000A4302837047F0B50C461546002200218B
:10273000068C4FF6FE773E400684028B018C4FF6E6
:102740000C7632407E1C06EA03162E433243704E4E
:10275000B0420ED06F4EB0420BD0B0F1804F08D0D7
:102760006D4EB04205D06D4EB04202D06C4EB042BC
:1027700006D14FF6FD76314044F00106314305E0C5
:102780004FF6F576314044F001063143028301846F
:10279000F0BD70B505460C465D4885420ED05D48DB
:1027A00085420BD0B5F1804F08D05B48854205D0FB
:1027B0005A48854202D05A48854200D100E000BF05
:1027C000208850B92389A28861882846FFF7ABFF8B
:1027D000E1882846FFF79EFF25E0208804280AD1DB
:1027E0002389A28861882846FFF753FFE18828469D
:1027F000FFF742FF17E0208808280AD12389A28822
:1028000061882846FFF7FBFEE1882846FFF7EEFEC9
:1028100009E02389A28861882846FFF7A6FEE1889F
:102820002846FFF795FE70BD2DE9F04105460C46A0
:1028300000260127608808B9022600E00026A0884B
:10284000012801D1022700E001272088A0B92389AF
:10285000A28861882846FFF766FFE1882846FFF7CF
:1028600059FF23893A4631462846FFF712FFE1888F
:102870002846FFF701FF13E02389A28861882846D4
:10288000FFF707FFE1882846FFF7F6FE23893A465F
:1028900031462846FFF747FFE1882846FFF73AFF11
:1028A000BDE8F0810A884B881A438B881A43CB888D
:1028B0001A430B891A434B891A438B891A43A0F890
:1028C000442070474FF6FF71818000210180C18054
:1028D0004180017270470021018041808180C18068
:1028E000018141818181C181704700210180418046
:1028F000012181800021C180018170470021018078
:1029000041808180C18001814181818170470000C7
:10291000002C014000340140000400400008004049
:10292000000C004021B1028842F00102028004E064
:1029300002884FF6FE731A400280704731B1B0F83A
:10294000442042F40042A0F8442005E0B0F84420BE
:10295000C2F30E02A0F8442070471AB183890B43DA
:10296000838102E083898B43838170478182704732
:1029700041EA0203A0F8483070471AB183890B433B
:10298000838102E083898B438381704701894FF6FD
:10299000F8721140018170470A46002101894FF603
:1029A0008F73194011430181704730B504460D46BD
:1029B00029462046FFF7F0FF208940F007002081DC
:1029C00030BD2DE9F04104460D4616461F46602DE8
:1029D00006D13B46012231462046FFF75AFE05E06C
:1029E0003B46012231462046FFF79DFE2946204600
:1029F000FFF7D2FF208940F007002081BDE8F08179
:102A000030B50C4600210189C9B24FF6FF7505EAC1
:102A10000325154325432943018130BD2DE9F041AC
:102A200005460E4617469846002443463A46314628
:102A30002846FFF7E5FF2C894FF6F870044044F074
:102A400007044FF68F70044044F070042C81BDE8F9
:102A5000F081F0B504460D4616461F463B46324609
:102A600029462046FFF7CCFF208940F48040208192
:102A7000F0BD0185828270470A46002101884FF629
:102A80008F731940114301807047F0B50C4615460D
:102A90001E460021002200230189028B038C4FF681
:102AA000F877394021434FF6FC473A4040F201178E
:102AB0003A434FF6DD773B404FF6FF7707EA0617BC
:102AC0002F433B43018102830384F0BD0A4600216A
:102AD000018B4FF68F7319401143018370470A46EB
:102AE0000021018B48F6FF7319404FF6FF7303EA8C
:102AF00002231943018370470A460021818B4FF658
:102B00008F7319401143818370470A460021818BDE
:102B100048F6FF7319404FF6FF7303EA0223194387
:102B20008183704721B1028842F08002028004E074
:102B300002884FF67F731A400280704721B1828865
:102B400042F00402828004E082884FF6FB731A4050
:102B50008280704721B1828842F00802828004E0BE
:102B600082884FF6F7731A408280704721B18288BD
:102B700042F00102828004E082884FF6FE731A4020
:102B8000828070470A460021018B4FF6F773194087
:102B90001143018370470A460021018B4FF2FF73F6
:102BA00019404FF6FF7303EA02231943018370476C
:102BB0000A460021818B4FF6F77319401143818338
:102BC00070470A460021818B4FF2FF7319404FF680
:102BD000FF7303EA02231943818370470A460021E9
:102BE000018B4FF6FB7319401143018370470A466E
:102BF0000021018B4FF6FF3319404FF6FF7303EAB4
:102C000002231943018370470A460021818B4FF646
:102C1000FB7319401143818370470A460021818B61
:102C20004FF6FF3319404FF6FF7303EA02231943AF
:102C3000818370470A460021018B4FF67F7319404C
:102C40001143018370470A460021018BC1F30E0135
:102C50004FF6FF7303EA02231943018370470A46C4
:102C60000021818B4FF67F73194011438183704798
:102C70000A460021818BC1F30E014FF6FF7303EA70
:102C800002231943818370470A460021018C4FF6C5
:102C9000FD7319401143018470470A460021018CDD
:102CA0004FF6F77319401143018470470A4600211B
:102CB000018C4FF6DF7319404FF6FF7303EA0213DE
:102CC0001943018470470A460021018C4FF67F7337
:102CD00019404FF6FF7303EA02131943018470474A
:102CE0000A460021018C4FF6FF5319404FF6FF733F
:102CF00003EA02231943018470470A460021018C2C
:102D00004FF2FF7319404FF6FF7303EA0223194392
:102D1000018470470A460021018C4DF6FF7319406B
:102D20004FF6FF7303EA023319430184704730B54D
:102D3000002301248C40A3B2048C9C430484048CA3
:102D400002FA01F5ADB22C43048430BD30B5002346
:102D500004248C40A3B2048C9C430484048C02FAA7
:102D600001F5ADB22C43048430BD70B5034600209C
:102D700000241846183001258D40ACB21D8CA543A7
:102D80001D8409B1082909D100EB6100056825F00F
:102D9000700505600568154305600EE00D1FC5F35D
:102DA0004E052844056825F4E045056005684FF6A2
:102DB000FF7606EA02263543056070BD21B1028820
:102DC00042F00202028004E002884FF6FD731A40CE
:102DD0000280704721B1028842F00402028004E0C0
:102DE00002884FF6FB731A400280704721B1828837
:102DF00042F08002828004E082884FF67F731A409E
:102E00008280704702884FF6F7731A40028002886A
:102E10000A430280704782884FF68F731A4082807F
:102E200082880A438280704702894FF6F8731A40FD
:102E3000028102890A430281704702894FF67F733B
:102E40001A40028102890A430281704781847047D7
:102E500081857047818670470187704781877047F9
:102E6000A0F84010704702884FF6FF431A400280D6
:102E700002880A43028070470146888E70470146E7
:102E8000088F70470146888F70470146B1F84000AF
:102E900070470146888C70470146088D704702468E
:102EA0000020138A0B400BB1012000E00020704786
:102EB000CA430282704730B5024600200023002436
:102EC000158A05EA0103958905EA010413B10CB1DD
:102ED000012000E0002030BDCA43028270477047E5
:102EE0007CB51D4616460C00009001D02044401EC3
:102EF000074B7B442A4669460190304600F09BFC14
:102F000005461CB10020694600F0A8FC28467CBD9F
:102F1000710900000FB4044910B503AA029800F02B
:102F2000ABFC10BC5DF814FB2000002070B504461B
:102F300085690068C10601D5302600E02026C0075B
:102F400007D070BDD4E9012130469047206A401C6B
:102F500020626D1EF6D570BD70B504468569007897
:102F6000C00707D170BDD4E9012120209047206A15
:102F7000401C20626D1EF6D570BD00002DE9F041A9
:102F80000646002410687529314616A510D000F0B9
:102F900096F9002802DA404213A507E031688A0753
:102FA00001D512A502E0490704D511A5012401E0CD
:102FB00000F08EF900210A2206F1240709E0B0FB97
:102FC000F2FCB0FBF2F302FB1C00303078541846E0
:102FD000491C0028F3D123462A463046BDE8F0417B
:102FE00000F0A8B9000000002D0000002B00000038
:102FF000200000002DE9F05F894604464FF0000AEA
:10300000DFF874B1FB44C0F820A02046E16888478F
:10301000002874D0252806D0D4E901219047206AE1
:10302000401C2062F1E700265F462046E1688847A1
:103030002028054607DB312D05D2781910F8200C21
:1030400008B10643F1E7B00701D526F00406C4F83D
:103050001CA00027C4F818A02A2D09D0284601F08A
:1030600001FB38B304EB8708303DC8F8185019E06D
:1030700059F8041B204604EB87029161E1688847F8
:10308000012F054618D1E069002820DA26F0200635
:103090001DE0D8F8180000EB800005EB4000303848
:1030A000C8F818002046E1688847054601F0DAFABA
:1030B0000028EED1012F0AD02E2D08D12046E1683C
:1030C00088477F1C0546022F46F02006C4DBA06916
:1030D000002803DA404246F00106A061F00701D063
:1030E00026F010066C2D0BD0682D09D04C2D39D050
:1030F0006A2D35D0742D35D07A2D33D016E038E0D6
:10310000E1682F4620468847B842054609D16C2F12
:1031100026D04FF48060E168064320468847054684
:1031200004E06C2F1AD04FF4807006430DB3A5F164
:103130004100192802D8203546F400664A4629463F
:10314000204626604E46FDF72DF880B101280BD0B1
:10315000F61D26F0070000F1080956E74020E4E7D5
:103160008020D8E70020D6E706F104094DE728467D
:1031700052E7206ABDE8F09FF41C000040EA01031A
:1031800070B59B072ED14FF00136042A2AD308C808
:1031900010C99D1B9D43121F15EAC61517D0D8B242
:1031A000E1B2401A50EA056110D198B2A1B2401ABA
:1031B00050EA05410AD123F07F4024F07F41401AB4
:1031C00050EA052102D1180EA0EB146070BDA34295
:1031D000DBD018BA21BA884201D9012070BD4FF066
:1031E000FF3070BD0AB9002070BD10F8013B11F826
:1031F000014B63B1A3420AD1521E08D010F8013B23
:1032000011F8014B1BB1A34201D1521EEDD1181B85
:1032100070BD4FF0000200B5134694469646203923
:1032200022BFA0E80C50A0E80C50B1F12001BFF47F
:10323000F7AF090728BFA0E80C5048BF0CC05DF8E5
:1032400004EB890028BF40F8042B08BF704748BF33
:1032500020F8022B11F0804F18BF00F8012B7047A7
:1032600010B5044610F0030F08BF11F0030F40F033
:1032700015804FF0013E121FC0F20E8051F8043B42
:10328000A3EB0E0C2CEA030C1CEACE1C08BF40F882
:10329000043BF0D0A1F1040102F10402521E08DB4C
:1032A00011F8013B002B00F8013BF7D1114600F06B
:1032B00013FC204610BD704770477047704709687F
:1032C0004A0501D540B27047C905FCD500B2704728
:1032D00009684A0501D5C0B27047C905FCD580B25E
:1032E000704770B50C460546012A05D0287880063F
:1032F00000D5EA69002302E0012305E05B1C93424C
:1033000002D2E05C0028F9D1A869E618C01AA861C9
:10331000286A184428622846FFF708FE04E0D5E929
:10332000012114F8010B9047B442F8D32846FFF767
:1033300013FE70BD2DE9F0470D46994692460446AE
:1033400000F124080168880604D5E06921F0100125
:10335000216000E00120A84201DD471B00E00027BA
:10336000A1697A1902EB0900081AA0612078C00649
:1033700002D42046FFF7DAFD002608E0D4E9012157
:103380001AF806009047206A401C761C20624E45C1
:10339000F4DB2078C0060AD52046FFF7C7FD06E01B
:1033A000D4E9012130209047206A401C2062381E59
:1033B000A7F10107F4DC07E0D4E9012118F80500C2
:1033C0009047206A401C2062281EA5F10105F3DC0D
:1033D0002046FFF7C1FD2078000602D50220BDE897
:1033E000F0870120FBE711680268006A530501D5E8
:1033F00008700AE0D30501D5088006E0130603D55E
:10340000C217C1E9000200E0086001207047704760
:103410002DE9FF4F0C461E464FF0FF378BB0D2E927
:103420000001DDF860800A908A46C1F30A5505B9AB
:103430003D46002108464FF00000BAF1000F00F4AD
:10344000400005DA00EB80004FF4400101EA500033
:103450004FEA9059B9F1010F00DDB9460A9850EAD8
:103460004A000ED044F61050A5F2FF3545432F1404
:10347000B8F1000F1ED07542291E1EDDC9F10002F1
:103480001CE0B8F1010F4FF0000001D0302103E043
:10349000F24305E02154401CB042FBDB30460022E1
:1034A000002121540B99C1F80880C1E900200FB018
:1034B000BDE8F08FBD1B6D1CDEE74A4600DA6942AD
:1034C00006A800F0E1FB06AB93E8070003AB83E836
:1034D000070050460A9900F0E9FC8DE80700A0F5C6
:1034E00000501F3800900398002D0ADD42F21F01A2
:1034F0004A460844002303A90390684600F052FF9F
:1035000009E0A0F500504A461F38002303A90390A4
:10351000684600F05CFF8DE807000004000C03D053
:103520004FF0FF30410800E01046B8F1000F03D023
:103530000022009215461EE0751E05D400F0F2FA36
:10354000303262556D1EF9D5B3460122084302D0D0
:1035500000227F1C04E02078302801D100227F1E49
:10356000002A099784D01DE0112D07DA00F0DAFA5D
:10357000303262556D1C50EA0102F5D1084302D089
:103580000098C8B10EE00021681E05E0235C625C73
:1035900063542254401E491C8142F7DBAB46A81BF2
:1035A000401E0990002004F80B000B98099AC0F8FF
:1035B0000880C0E9002B7AE711264FF0000857E792
:1035C0002DE9F04F88460446D21D22F0070191B044
:1035D000D1E90001CDE90A0101F030F802460B986B
:1035E000C00F01D02D2007E02068810701D52B20D6
:1035F00002E0202101EAC000032A099001D0072A35
:1036000005DB03464146204600F0D2FA0BE1207864
:10361000800601D5E06900E00620B8F1650F81461B
:1036200006D0B8F1660F18D0B8F1670F70D131E04D
:103630000020B9F1110F009001DB112301E009F125
:1036400001030AAA01A90CA8FFF7E2FEDDE90C704C
:10365000002609F10105834647E001204B46009012
:103660004FF000470AAA01A90CA8FFF7D1FEDDE937
:103670000DB00C995D46002610B909F101000D1836
:10368000B9EB050003D4C0F1FF3609F10105A5EB44
:1036900009002BE0B9F1010F01DA4FF00109002018
:1036A000B9F1110F0090484601DD112300E00346F7
:1036B0000AAA01A90CA8FFF7ABFEDDE90C704D4684
:1036C00000268346207800070AD4AB4500DA5D4621
:1036D00001A8012D04DD411911F8011C302907D082
:1036E0004F4502DA17F1040F04DA012082460FE099
:1036F0006D1EEEE7002F02DCED1B3E4403E0781C5C
:10370000A84200DD7D1CB81B00F1010A4FF0004704
:103710002078000703D4AA4501DB4FF0FF3A0021CF
:10372000B7F1004F0DF143088DF8431024D002206B
:103730002B23002F01DA7F422D230A21021EA0F144
:10374000010000DC5FB197FBF1FC97FBF1F201FB9C
:103750001C7C17460CF1300C08F801CDEEE7A8F1FF
:10376000010003702188090501D5452100E065218C
:10377000A0F1010800F8011C09980FA9A1EB0807A6
:10378000FF1D00B10120411901EBEA70A169384425
:10379000081A401EA0612078C00602D42046FFF718
:1037A000C5FB099828B1D4E901219047206A401C43
:1037B00020622078C00622D52046FFF7B7FB1EE026
:1037C000002E04DBB34502DD01A8805D00E030205F
:1037D000D4E901219047206A401C2062761CAAF19E
:1037E00001005FEA000A0AD100F098F9C068016898
:1037F000405CD4E901219047206A401C2062281EC9
:10380000A5F10105DCDC07E0D4E9012118F8010B82
:103810009047206A401C2062381EA7F10107F3DCA4
:103820002046FFF799FB032011B041E601694A1CCD
:1038300002610878704700B58FB0CDE901310021F1
:10384000059105497944CDE9031011466846FFF713
:10385000D1FB0FB000BD0000E5FFFFFF0A6802F8D2
:10386000010B0A607047D1E900239A4202D2531C2F
:103870000B60107070470000074B70B50D467B441D
:10388000FFF7D9FF0446284600F070FA10B14FF058
:10389000FF3070BD204670BD0DD4FFFF2DE9FF5FE6
:1038A00015468A460446DFF8AC80F8440027D8E97C
:1038B00000103E46CDE9001010E03AF816106A46B6
:1038C00002A800F057FA411C07D02178890603D5D9
:1038D000E269391891420DD80744761C2078800699
:1038E00002D5E069B84205DDAE42E6DB3AF81600E3
:1038F0000028E2D1A069C01BA0612046FFF716FB9B
:10390000D8E90010CDE90010002017E03AF81810AF
:103910006A4602A800F02EFAB0F1FF3F81460BD0B4
:1039200000250DF1080B05E0D4E901211BF8050085
:1039300090476D1C4D45F7D308F10100B042804619
:10394000E4DB206A384420622046FFF705FBBDE82F
:10395000FF9F0000621400002DE9F0418046D21D57
:1039600022F007020025D2E90002F52915A614D09D
:10397000011E72F1000106DA0023D0EB030063EBB5
:10398000020211A608E0D8F800108B0701D50FA697
:1039900002E0490701D50EA601251146002408F1D1
:1039A000240704E000F0BEF830323A55641C50EAB7
:1039B0000102F7D12B46324621464046BDE8F04190
:1039C000FFF7B8BC000000002D0000002B00000035
:1039D0002000000030B4002100F1240408E002F0CF
:1039E0000705D208303542EA4372DB086554491CAA
:1039F00052EA0305F3D10468002310A2250707D576
:103A0000A40600D421B1C46901230DA2641EC461BF
:103A100030BCFFF78FBC10B5044621461068FFF795
:103A200057FC02462046BDE810400023D2E7D21DD5
:103A300022F00701D1E90023CCE7000000000000DC
:103A400030000000F0B40D460188090502D5214C74
:103A50007C4402E01F4C7C440E34002100F124061B
:103A600008E002F00F071209E75D42EA03721B0942
:103A70007754491C52EA0307F3D102780023120756
:103A800004D5702D06D009B1022311342246F0BCB2
:103A9000FFF750BC01231034F8E770B504460D461B
:103AA00021461068FFF714FC024629462046BDE86F
:103AB00070400023C6E7D21D22F00703D3E900239C
:103AC000C0E70368126843F0200303600823C36162
:103AD0000023B7E7C41200004FF000020429C0F031
:103AE000128010F0030C3FF496ABCCF1040CBCF147
:103AF000020F18BF00F8012BA8BF20F8022BA1EB82
:103B00000C01FFF788BB5FEAC17C24BF00F8012BE2
:103B100000F8012B48BF00F8012B704700487047A0
:103B20006802002030B5B0F10A024FEA900E71F140
:103B300000034EEA817EB0EB0E0061EB91014FEA8B
:103B4000101E4EEA017E10EB0E0041EB11114FEA00
:103B5000102E4EEA016E10EB0E0041EB11214FEAE0
:103B6000104E4EEA014E10EB0E0041EB1141401891
:103B700041F100014FEAD00040EA41704FEAD10123
:103B800010EB80054FEA810444EA907444EB010491
:103B90006D1944EB0404521BA3414FF0000348BFCE
:103BA0000A3200D530BD401C41F1000130BD00009B
:103BB0002DE9F0411F46044603260168072A01F457
:103BC000006004DB08B116A505E016A503E008B106
:103BD00015A500E015A521F010002060A069C01E09
:103BE000A0610FB1401EA0612046FFF79FF94FB1C1
:103BF000D4E9012138469047206A401C2062C01C4D
:103C0000206206E0206AFAE7D4E9012115F8010BE9
:103C10009047761EF8D22046FFF79EF9BDE8F08166
:103C20004E414E006E616E00494E4600696E660060
:103C300010B5436913B1AFF3008001E0FFF751FB0A
:103C4000012010BD127800F124010A7000224A7090
:103C50000122EDE711684FF0FF32E9E710B5436943
:103C600013B1AFF3008001E0FFF718FE012010BD93
:103C7000128800F1240182840022C2840122EDE72F
:103C800011684FF0FF32E9E72DE9F047814616460B
:103C90008AB0354878440DC88DE80D003248784424
:103CA000801C03AC0DC884E80D0041F69B3008442D
:103CB000372190FBF1F290FBF1F5A5F1800501FBB6
:103CC00012041B3C02D56442012000E00020DFF812
:103CD00098A080460027FA44AAF1BE0A0EE0E00749
:103CE0000AD03246684607EB470101230AEB8101FF
:103CF00000F06DFB8DE8070064107F1C002CEED1F6
:103D0000194F7F44AE3F19E0E80715D007EB0410C8
:103D10000DF1180A90E80E008AE80E00C068F04223
:103D200001D1981908903246012306A903A800F092
:103D30004EFB03AB83E807006D10641C002DE3D13C
:103D40004FF0010332466946B8F1000F03A802D0D4
:103D500000F028FB01E000F03AFBC9E90001C9F8D6
:103D600008200AB0BDE8F08724110000007B00F0B5
:103D70008000704770B516460C46054600F044F8C2
:103D8000036893F80101012806D0FF2C0FD8185DB5
:103D900068B101202C7070BDD3F80701324621466E
:103DA00003F2071303442846BDE8704018474FF05C
:103DB000FF3070BD00487047480200207546FFF78D
:103DC000F9FFAE4605006946534620F007008546D8
:103DD00018B020B5FDF772FBBDE820404FF000069B
:103DE0004FF000074FF000084FF0000B21F00701E3
:103DF000AC46ACE8C009ACE8C009ACE8C009ACE826
:103E0000C0098D467047000010B5FFF787FE001D02
:103E100010BD00BF8D08000010B50446AFF3008050
:103E20002046BDE81040FCF720BA00004FF0013CEE
:103E300050F8042B51F8043B9A4221D1A2EB0C0319
:103E4000934313EACC1317D150F8042B51F8043BD9
:103E50009A4215D1A2EB0C03934313EACC130BD176
:103E600050F8042B51F8043B9A4209D1A2EB0C0301
:103E7000934313EACC13DBD04FF00000704700BF30
:103E8000D01A01BAB1FA81F101F0180122FA01F059
:103E9000CB40C1F12001DBB2C0B2C01A2CFA01F351
:103EA000D11A914311EAC311E6D170475FEA400C81
:103EB00008BF91F0000F4FEA8C234FEAC12243EA7A
:103EC00051514FEA1C5018BF00F5F0404FEA300046
:103ED00018BF41F000415FEA6C5C00F02980BCF142
:103EE000FF3F08BF40F080407047130C06BF12042C
:103EF0004FF0100C4FF0000C130E04BF12020CF127
:103F0000080C130F04BF12010CF1040C930F04BF33
:103F100092000CF1020CD30F04BF52000CF1010C03
:103F200011464FF00002A0F11F00A0EB0C007047FB
:103F300011F0004F08BF704731F000413FF4D5AF9A
:103F40000B0C06BF09044FF0100C4FF0000C0B0EC9
:103F500004BF09020CF1080C0B0F04BF09010CF19E
:103F6000040C8B0F04BF89000CF1020CCB0F04BFB3
:103F700049000CF1010CCCF12003A0EB0C0022FA5B
:103F800003F302FA0CF241EA030100F10100704769
:103F900020F07F4C80EA030023F07F47ACEB07035F
:103FA00003F57C5300F0004003F1FF032DE9804945
:103FB0004FEA154B09B44FEA144325EA0B4E24EAA5
:103FC00003480FF2042606EB132749083E785FEA00
:103FD000320203FB0667C7F5000707FB06F64FEA48
:103FE00054374FEAD64606F1020607FB066CCCF1C1
:103FF000005C4FEA1C472CEA074C07FB06F40CFB5D
:1040000006F504EB15464FEA961634BF00204FF034
:1040100000404FEAD13706FB07FC4FEA1C4C0CFB73
:104020000BF7D21B03FB0CF761EB07010CFB0EF740
:10403000B0EB074072EB17420CFB08F734BFA2EB62
:104040000742B2EB074261EB17414FEA0C444FEADB
:10405000910706FB07FC4FEA1C4C0CFB0BF7B0EB7F
:10406000C74072EB573203FB0CF734BFA2EBC742D9
:10407000B2EBC74261EB57310CFB0EF7B0EBC70058
:1040800072EB57720CFB08F734BFA2EBC702B2EB1E
:10409000C70261EB5771039F4FEA816141EA9211B8
:1040A00004EBCC044FEAD1374FEA826206FB07FCEF
:1040B00042EA90124FEA80604FEA1C4C0CFB0BF76F
:1040C000D21B03FB0CF761EB07010CFB0EF7B0EB07
:1040D000074072EB17420CFB08F734BFA2EB074214
:1040E000B2EB074261EB17414FEA8C554FEA91075B
:1040F00004EB9C2406FB07FC4FEA1C4C0CFB0BF763
:10410000B0EBC74072EB573203FB0CF734BFA2EBA6
:10411000C742B2EBC74261EB57310CFB0EF7B0EB75
:10412000C70072EB57720CFB08F734BFA2EBC70253
:10413000B2EBC70261EB577115EB4C254FEA816179
:1041400041EA92114FEA82624FEAD13742EA901275
:1041500006FB07FC44F100044FEA80604FEA1C4C68
:104160000CFB0BF7D21B03FB0CF761EB07010CFBFD
:104170000EF7B0EB074072EB17420CFB08F734BFA9
:10418000A2EB0742B2EB074261EB174115EB1C159E
:104190004FEA813141EA92414FEA823242EA90424B
:1041A0004FEA80304FEA0C7644F1000448EA0343BA
:1041B0004EEA0B484FF0000EB2EB080C71EB030710
:1041C00024BF624639464EEB0E0E4FF0000B00182E
:1041D000524149414BEB0B0BB2EB080C71EB03075F
:1041E0007BF1000B24BF624639464EEB0E0E4FF0BA
:1041F000000B0018524149414BEB0B0BB2EB080C82
:1042000071EB03077BF1000B24BF624639464EEB8E
:104210000E0E51EA020718BF46F0010616EB0E76A5
:1042200055F1000254F1000103D5BDE88901BDE854
:104230000088BDE88901BDE80048B619524141EB4C
:104240000101A3F10103704780807F7E7D7C7B7A32
:104250007978777676757473727171706F6E6E6D32
:104260006C6C6B6A6A6968686766666564646363D8
:1042700062616160605F5F5E5E5D5D5C5C5B5B5A5E
:104280005A595958585757565655555554545353CB
:1042900052525251515050504F4F4F4E4E4D4D4D26
:1042A0004C4C4C4B4B4B4A4A4A4949494848484771
:1042B00047474746464645454544444444434343AF
:1042C0004342424242414141002B9C4630D4770058
:1042D0002BD01CB54FEA370703B44FF010004FF056
:1042E0001001BAF1000F06D0BCF1000FDCBF40F0A6
:1042F000080040F008014FF000000FBCBDE810407E
:104300000BF1010BBBF1010F08BF5FEA170722BFDA
:1043100012F1010211F101014FF0004143F10003DC
:1043200000F0004043EA00007047F9D35708D0E797
:1043300046EA064613F1400F4FEA16461FDD13F119
:10434000200FDFBF16430A46002120335B42BED058
:10435000C3F1200746EA064602FA07F74FEA164677
:1043600046EA0706C3F1200722FA03F201FA07F72B
:1043700021FA03F14FF0000342EA0702A7E746EAF9
:10438000020646EA06464FEA164646EA0106BCBF62
:1043900046EA0646360C4FF000034FF000024FF09D
:1043A000000194E72DE9804C9A46934670B491E859
:1043B000380007C831EA400C48BF34EA430C03D543
:1043C000FFF7E6FDFFF780FFF0BCBDE8008C2DE9AC
:1043D000804C9A46934670B491E8380007C810F0B4
:1043E000804F08BF13F0804F03D100F005F8FFF7AE
:1043F0006BFFF0BCBDE8008C20F07F4780EA030033
:1044000023F07F4C07EB0C03A3F57C5300F0004036
:10441000A3F1FE0392F0000F00F0B38095F0000FBF
:1044200000F077802DE901494FEA11404FEA144628
:1044300021EA004800FB06FC24EA064708FB06F6D2
:1044400007FB08F800FB07F718EB06484CEB164C87
:104450004FEA124B18EB07484FEA15464CEB174052
:1044600022EA0B4E0BFB06FC25EA06470EFB06F67E
:1044700007FB0EFE0BFB07F71EEB064E4CEB164C34
:104480004FF000061EEB074E4CEB174B18EB0B08DA
:1044900040F1000018EB0E0B58EB000840F1000053
:1044A0008F1A4FF000013CBFC943661B14BFB5EB28
:1044B000040C00213CBFC943F61B4FEA17444EEAE7
:1044C0008E0E27EA04454FEA1C4704FB07622CEADC
:1044D000074C05FB07F70CFB05F604FB0CFC16EB81
:1044E000074642EB174216EB0C4642EB1C421BEB15
:1044F000060658EB0202414146EA9E0601D5BDE898
:104500000189B619524141EB0101A3F10103BDE854
:1045100001894FEA14454FEA114724EA054621EA8A
:10452000074C05FB07F406FB07F70CFB06F105FB40
:104530000CFC11EB074144EB17444FEA124711EB17
:104540000C4144EB1C4422EA074C05FB07F206FB36
:1045500007F70CFB06F605FB0CFC16EB074642EBD7
:10456000174216EB0C4642EB1C456A1854F1000149
:1045700048BF7047B619524141EB0101A3F1010355
:10458000704795F0000F37D04FEA11424FEA1447B9
:1045900021EA024624EA074C02FB07F106FB07F773
:1045A0000CFB06F402FB0CFC14EB074441EB174137
:1045B0004FEA154714EB0C4441EB1C4125EA074C2C
:1045C00002FB07F506FB07F70CFB06F602FB0CFCEB
:1045D00016EB074645EB174516EB0C4645EB1C4220
:1045E000121951F1000148BF7047B619524141EB11
:1045F0000101A3F1010370474FEA14454FEA114747
:1046000024EA054621EA074C05FB07F106FB07F7FC
:104610000CFB06F24FF0000605FB0CFC12EB074208
:1046200041EB174112EB0C4251EB1C4148BF704764
:10463000921841EB0101A3F101037047490050EAD0
:10464000C12018BF04204A0D18BF40F0010040F2FD
:10465000FF72B2EB515F08BF40F00200012808BFB3
:104660000520704730380A2801D201207047002009
:104670007047000010B500290AD00878002807D03C
:1046800005487844FFF7D2FB002801D0002010BD78
:104690000248784410BD00000A080000020800002B
:1046A00010B500290AD00878002807D005487844BA
:1046B000FFF7BCFB002801D0002010BD0248784461
:1046C00010BD0000FA070000F207000021F00042D0
:1046D000A2F16052B2F5801F01F0004328BFD2F171
:1046E0007F6C0BD95FEA001C43EAC20242EB5070B8
:1046F00018BF704728BF20F001007047B2F5801F37
:10470000BCBF184670474FEA410C1CF5001F02D28F
:10471000084600F0ECBA70B500F024FA00000089F9
:10472000FFF7F6BF4FF00040A0F580007047000093
:104730002DE9C04130B4DFF8A0C23CEA111418BF23
:104740003CEA131400F0EC8081EA03051CEA111422
:1047500044EAD57418BF1CEA131500F0C780A4EB17
:1047600005044FF0004545EAC12145EAC32341EA6B
:10477000505143EA525304F17F74994204F50034D6
:104780004FEAC0204FEAC22208BF904200F09C804E
:104790004FEA13650FF24016765D4FEA134506FBAC
:1047A00005F7C7F1807706FB07F74FEAD737A7FB76
:1047B00003687642C8F58038A7FB06CE38BFA8F15B
:1047C000010807FB08E64FF0000EA6FB028CE6FB93
:1047D00003CEDCF1000CCEF1004E38BFAEF1010E7D
:1047E000A6FB0C584FF000074FF00005E6FB0E87C4
:1047F000A1FB08C6A0FB07CE16EB0E0645F100058F
:10480000E1FB076515F1E04E7EBFA4F580345FEA59
:1048100046066D4116F1800745F100054FEA17275E
:104820004FEA066647EA0567A6F1DE46B6F1805F05
:104830004FEA15251FD9384624F0010C05EBC47149
:10484000BCF1FE6F01EB0C1102D8F0BCBDE8008199
:1048500024425CBF01F5801E9EEAC47F02D4F0BCF6
:10486000BDE80081244238D4F0BCA1F1C041BDE8CC
:10487000004100F0C5B94FEAD22242EA43524FEA62
:10488000D323A7FB02864FEAD02040EA415007FB22
:1048900003661EEA0E0F4FEAD12105FB026658BFE0
:1048A000A6EB0056B6EB00564FEA520E4EEAC37E18
:1048B00018EB0E0E56EB530EBDD518EB02085E41F9
:1048C0007F1C55F10005B6E74FF480154FF0000747
:1048D0004FF000064FF00008ADE7F0BC4FF00000CD
:1048E00001F1C04101F00041BDE8008111EA0C1F57
:1048F0000CEA131500D00CE013EA0C1F00F0258021
:104900004FF00000F0BC81EA030101F00041BDE876
:104910000081F0BCBDE8004181EA030100F070B9FC
:10492000F0BCBDE8004170B500F01CF9097EFC3E0A
:1049300000F007B881EA03014FF0000001F00041E8
:10494000704781EA030100F05BB9F0BCBDE80041AB
:104950004FF0000021497047FFFDFBF9F7F5F4F235
:10496000F0EEEDEBE9E8E6E4E3E1E0DEDDDBDAD80A
:10497000D7D5D4D3D1D0CFCDCCCBCAC8C7C6C5C468
:10498000C2C1C0BFBEBDBCBBBAB9B8B7B6B5B4B37F
:10499000B2B1B0AFAEADACABAAA9A8A8A7A6A5A46A
:1049A000A3A3A2A1A09F9F9E9D9C9C9B9A9999982E
:1049B0009797969595949393929191908F8F8E8ED1
:1049C0008D8C8C8B8B8A898988888787868585845E
:1049D00084838382828181800000FF070000F87F4A
:1049E00010F0004248BF4042B0FA80F310FA03F1E1
:1049F0000AD0C3F11D0303F580634FEA415002EB77
:104A0000035202EBD12170474FF0000070470000C5
:104A1000DFF848C170B51CEA111E1EBF1CEA131551
:104A20009EEA0C0F95EA0C0F00F06F8081EA0304F8
:104A300023EA4C134EEAD47E21EA4C1141F4801152
:104A400043F48013AE44A1FB024CA0FB0365AEF11E
:104A50007F7E361955EB0C05A1FB034C4CF100038E
:104A6000A0FB021C16EB0C06654153F10003094242
:104A700018BF46F0010613F4007F0BD14FEA033153
:104A80004FEA0530340341EA155140EA16506FF001
:104A900003020AE04FEAC3214FEAC520F40241EACB
:104AA000555140EA56506FF0020202EB2E4201EBE4
:104AB000025585EACE710AD05FEA440C18BF24F093
:104AC000004450F1000041F1000120EAD47040F2AE
:104AD000FE7C624500D270BDA84214BF4FF08044F6
:104AE0004FF04044002E08BF0024BEF1806FA8BFE5
:104AF000A1F1C041BDE8704080F282804FF000001B
:104B000001F1C04101F0004170479EEA0C0F0CEA30
:104B1000131518BF95EA0C0F06D04FF0000081EA7C
:104B2000030E0EF0004170BD00F01CF88900013E3C
:104B300000F007B800F009B84FEA430C5FEA5C5C8C
:104B400008D081EA030100F05BB84FEA410C5FEA4C
:104B50005C5CF6D14FF00000014970470000FF0790
:104B60000000F87F0EF1020E2EF0030E5EF8046BCB
:104B7000364205D4012A43EB030515F5001F12D870
:104B8000012841EB010C1CF5001F0CD80ED14FEA97
:104B9000D17C15F5001F0CEB4C0C0CF1020C08BF7E
:104BA0004CEBD37C04E04FF0080C01E04FEAD37CDF
:104BB0000CEB4C0526FA05F606F00706B6F1040CD8
:104BC00006D20EEB860CBDE870404CF0010C60473D
:104BD000DFE80CF0090B02024FF000414FF000003B
:104BE000A1F5002170BD19461046012851EB0104C2
:104BF00018BFD4F5001484BF002001F0004170BD3F
:104C00000808A0F500114FEA3101704743004FEA50
:104C1000D30C4FEA3C0C43401FBF40070CF16051DE
:104C200013F0FE4F70471CF0006F03D100200CF012
:104C3000004170470CF0004343EA507010B540EA61
:104C4000CC0000F00EF800BF000000924FEA000117
:104C5000FFF7D6BF4FF000414FF00000A1F5002153
:104C600070470EF1020E2EF0030E5EF8044B244244
:104C700004D44FEA4102B2F17F4F11D84FEA40030A
:104C8000B3F17F4F0CD80ED14FEAD07CB2F17F4FF9
:104C90000CEB4C0C0CF1020C08BF4CEBD17C04E08B
:104CA0004FF0080C01E04FEAD17C0CEB4C0324FAE6
:104CB00003F404F00704B4F1040C06D20EEB840CE8
:104CC000BDE810404CF0010C6047DFE80CF007082D
:104CD00002024FF00040A0F5800010BD08464200DF
:104CE00018BFD2F1807288BF00F0004010BDFF21D4
:104CF00041EAD050C0057047FEF762BC04000008CE
:104D00000000000000000002000100001000000090
:104D100000000000000000003031323334353637F7
:104D200038394142434445464030580030313233EF
:104D300034353637383961626364656640307800EF
:104D400002400000000000A000000000054000003C
:104D5000000000C8000000000C4000000000409C63
:104D600000000000194000000020BCBE0000000050
:104D700034400000BFC91B8E00000004B540000095
:104D8000504BCFD06607E2CF010000006C4100001D
:104D90003E8251AADFEEA73401000000D942000094
:104DA000DCB5A0E23A301F97FFFFFFFFB4450000DB
:104DB000FD25A0C8E9A3C14FFFFFFFFFFF3F000093
:104DC0000000008000000000FF3F000000000080A5
:104DD000000000006D6F746F5F73706565643A006A
:104DE0007265735F7365745F6D6F746F5F6E756D01
:104DF0003D0000007265735F6465746563745F6590
:104E00006E3D00007265735F6465746563745F6D09
:104E10006F746F3D000000007265735F7365745FAF
:104E2000667265713D0000006661696C5F6465745F
:104E30006563745F6D6F746F000000006661696C7C
:104E40005F7365745F6D6F746F0000006661696CFD
:104E50005F7365745F667265710000006661696CFE
:104E60005F656E5F6465746563740000B84F000829
:104E700000000020680000006C01000820500008BD
:104E80006800002040080000880100081C000000A5
:104E900043000000F8FFFFFF0C0000000E000000C0
:104EA0000F0000002E000000100100004300000071
:104EB000F8FFFFFF0040404040404040404041413B
:104EC00041414140404040404040404040404040DF
:104ED0004040404040050202020202020202020279
:104EE0000202020202202020202020202020200276
:104EF0000202020202029090909090901010101006
:104F000010101010101010101010101010101010A1
:104F10000202020202028888888888880808080835
:104F20000808080808080808080808080808080801
:104F30000202020240000000000000000000000029
:104F40000000000000000000000000000000000061
:104F50000000000000000000000000000000000051
:104F60000000000000000000000000000000000041
:104F70000000000000000000000000000000000031
:104F80000000000000000000000000000000000021
:104F90000000000000000000000000000000000011
:104FA0000000000000000000000000000000000001
:104FB000000000000000000000A24A040000000001
:104FC00000000000010203040607080900000000B9
:104FD00000000000000000000000000000000000D1
:104FE000D44D0008184E0008E04D0008F44D0008AC
:104FF000044E00084C4E00083C4E00085C4E000871
:10500000284E00080000000000000000000001021F
:10501000030401020304060708090204060800004D
:0400000508000131BD
:00000001FF
